{
  "_format": "hh-sol-artifact-1",
  "contractName": "ButlerVault",
  "sourceName": "contracts/ButlerVault.sol",
  "abi": [
    {
      "inputs": [
        {
          "internalType": "address",
          "name": "_usdc",
          "type": "address"
        },
        {
          "internalType": "address",
          "name": "_aavePool",
          "type": "address"
        },
        {
          "internalType": "address",
          "name": "_butlerAgent",
          "type": "address"
        }
      ],
      "stateMutability": "nonpayable",
      "type": "constructor"
    },
    {
      "inputs": [],
      "name": "ReentrancyGuardReentrantCall",
      "type": "error"
    },
    {
      "anonymous": false,
      "inputs": [
        {
          "indexed": true,
          "internalType": "address",
          "name": "user",
          "type": "address"
        }
      ],
      "name": "ButlerActivated",
      "type": "event"
    },
    {
      "anonymous": false,
      "inputs": [
        {
          "indexed": true,
          "internalType": "address",
          "name": "user",
          "type": "address"
        }
      ],
      "name": "ButlerRevoked",
      "type": "event"
    },
    {
      "anonymous": false,
      "inputs": [
        {
          "indexed": true,
          "internalType": "address",
          "name": "user",
          "type": "address"
        },
        {
          "indexed": false,
          "internalType": "uint256",
          "name": "amount",
          "type": "uint256"
        }
      ],
      "name": "DeployedToAave",
      "type": "event"
    },
    {
      "anonymous": false,
      "inputs": [
        {
          "indexed": true,
          "internalType": "address",
          "name": "user",
          "type": "address"
        },
        {
          "indexed": false,
          "internalType": "uint256",
          "name": "amount",
          "type": "uint256"
        }
      ],
      "name": "Deposited",
      "type": "event"
    },
    {
      "anonymous": false,
      "inputs": [
        {
          "indexed": true,
          "internalType": "address",
          "name": "from",
          "type": "address"
        },
        {
          "indexed": true,
          "internalType": "address",
          "name": "to",
          "type": "address"
        },
        {
          "indexed": false,
          "internalType": "uint256",
          "name": "amount",
          "type": "uint256"
        }
      ],
      "name": "PaymentSent",
      "type": "event"
    },
    {
      "anonymous": false,
      "inputs": [
        {
          "indexed": true,
          "internalType": "address",
          "name": "user",
          "type": "address"
        },
        {
          "indexed": false,
          "internalType": "address",
          "name": "recipient",
          "type": "address"
        },
        {
          "indexed": false,
          "internalType": "uint256",
          "name": "amount",
          "type": "uint256"
        },
        {
          "indexed": false,
          "internalType": "string",
          "name": "schedule",
          "type": "string"
        }
      ],
      "name": "RuleSet",
      "type": "event"
    },
    {
      "anonymous": false,
      "inputs": [
        {
          "indexed": true,
          "internalType": "address",
          "name": "user",
          "type": "address"
        },
        {
          "indexed": false,
          "internalType": "uint256",
          "name": "amount",
          "type": "uint256"
        }
      ],
      "name": "Withdrawn",
      "type": "event"
    },
    {
      "anonymous": false,
      "inputs": [
        {
          "indexed": true,
          "internalType": "address",
          "name": "user",
          "type": "address"
        },
        {
          "indexed": false,
          "internalType": "uint256",
          "name": "amount",
          "type": "uint256"
        }
      ],
      "name": "WithdrawnFromAave",
      "type": "event"
    },
    {
      "inputs": [
        {
          "internalType": "address",
          "name": "",
          "type": "address"
        }
      ],
      "name": "aaveDeposits",
      "outputs": [
        {
          "internalType": "uint256",
          "name": "",
          "type": "uint256"
        }
      ],
      "stateMutability": "view",
      "type": "function"
    },
    {
      "inputs": [],
      "name": "aavePool",
      "outputs": [
        {
          "internalType": "contract IAavePool",
          "name": "",
          "type": "address"
        }
      ],
      "stateMutability": "view",
      "type": "function"
    },
    {
      "inputs": [
        {
          "internalType": "address",
          "name": "",
          "type": "address"
        }
      ],
      "name": "butlerActive",
      "outputs": [
        {
          "internalType": "bool",
          "name": "",
          "type": "bool"
        }
      ],
      "stateMutability": "view",
      "type": "function"
    },
    {
      "inputs": [],
      "name": "butlerAgent",
      "outputs": [
        {
          "internalType": "address",
          "name": "",
          "type": "address"
        }
      ],
      "stateMutability": "view",
      "type": "function"
    },
    {
      "inputs": [
        {
          "internalType": "address",
          "name": "user",
          "type": "address"
        },
        {
          "internalType": "uint256",
          "name": "amount",
          "type": "uint256"
        }
      ],
      "name": "deployToAave",
      "outputs": [],
      "stateMutability": "nonpayable",
      "type": "function"
    },
    {
      "inputs": [
        {
          "internalType": "uint256",
          "name": "amount",
          "type": "uint256"
        }
      ],
      "name": "deposit",
      "outputs": [],
      "stateMutability": "nonpayable",
      "type": "function"
    },
    {
      "inputs": [
        {
          "internalType": "address",
          "name": "",
          "type": "address"
        }
      ],
      "name": "deposits",
      "outputs": [
        {
          "internalType": "uint256",
          "name": "",
          "type": "uint256"
        }
      ],
      "stateMutability": "view",
      "type": "function"
    },
    {
      "inputs": [],
      "name": "emergencyWithdraw",
      "outputs": [],
      "stateMutability": "nonpayable",
      "type": "function"
    },
    {
      "inputs": [
        {
          "internalType": "address",
          "name": "user",
          "type": "address"
        }
      ],
      "name": "executePayment",
      "outputs": [],
      "stateMutability": "nonpayable",
      "type": "function"
    },
    {
      "inputs": [
        {
          "internalType": "address",
          "name": "user",
          "type": "address"
        }
      ],
      "name": "getPaymentRule",
      "outputs": [
        {
          "internalType": "address",
          "name": "recipient",
          "type": "address"
        },
        {
          "internalType": "uint256",
          "name": "amount",
          "type": "uint256"
        },
        {
          "internalType": "string",
          "name": "schedule",
          "type": "string"
        },
        {
          "internalType": "bool",
          "name": "active",
          "type": "bool"
        }
      ],
      "stateMutability": "view",
      "type": "function"
    },
    {
      "inputs": [
        {
          "internalType": "address",
          "name": "user",
          "type": "address"
        }
      ],
      "name": "getUserBalance",
      "outputs": [
        {
          "internalType": "uint256",
          "name": "vaultBalance",
          "type": "uint256"
        },
        {
          "internalType": "uint256",
          "name": "aaveBalance",
          "type": "uint256"
        },
        {
          "internalType": "uint256",
          "name": "paymentReserve",
          "type": "uint256"
        },
        {
          "internalType": "bool",
          "name": "isActive",
          "type": "bool"
        }
      ],
      "stateMutability": "view",
      "type": "function"
    },
    {
      "inputs": [],
      "name": "owner",
      "outputs": [
        {
          "internalType": "address",
          "name": "",
          "type": "address"
        }
      ],
      "stateMutability": "view",
      "type": "function"
    },
    {
      "inputs": [
        {
          "internalType": "address",
          "name": "",
          "type": "address"
        }
      ],
      "name": "paymentReserves",
      "outputs": [
        {
          "internalType": "uint256",
          "name": "",
          "type": "uint256"
        }
      ],
      "stateMutability": "view",
      "type": "function"
    },
    {
      "inputs": [
        {
          "internalType": "address",
          "name": "",
          "type": "address"
        }
      ],
      "name": "paymentRules",
      "outputs": [
        {
          "internalType": "address",
          "name": "recipient",
          "type": "address"
        },
        {
          "internalType": "uint256",
          "name": "amount",
          "type": "uint256"
        },
        {
          "internalType": "string",
          "name": "schedule",
          "type": "string"
        },
        {
          "internalType": "bool",
          "name": "active",
          "type": "bool"
        }
      ],
      "stateMutability": "view",
      "type": "function"
    },
    {
      "inputs": [],
      "name": "revokeButler",
      "outputs": [],
      "stateMutability": "nonpayable",
      "type": "function"
    },
    {
      "inputs": [
        {
          "internalType": "address",
          "name": "recipient",
          "type": "address"
        },
        {
          "internalType": "uint256",
          "name": "amount",
          "type": "uint256"
        },
        {
          "internalType": "string",
          "name": "schedule",
          "type": "string"
        }
      ],
      "name": "setPaymentRule",
      "outputs": [],
      "stateMutability": "nonpayable",
      "type": "function"
    },
    {
      "inputs": [
        {
          "internalType": "address",
          "name": "user",
          "type": "address"
        },
        {
          "internalType": "address",
          "name": "recipient",
          "type": "address"
        },
        {
          "internalType": "uint256",
          "name": "amount",
          "type": "uint256"
        },
        {
          "internalType": "string",
          "name": "schedule",
          "type": "string"
        }
      ],
      "name": "setPaymentRuleForUser",
      "outputs": [],
      "stateMutability": "nonpayable",
      "type": "function"
    },
    {
      "inputs": [
        {
          "internalType": "address",
          "name": "newAgent",
          "type": "address"
        }
      ],
      "name": "updateButlerAgent",
      "outputs": [],
      "stateMutability": "nonpayable",
      "type": "function"
    },
    {
      "inputs": [],
      "name": "usdc",
      "outputs": [
        {
          "internalType": "contract IERC20",
          "name": "",
          "type": "address"
        }
      ],
      "stateMutability": "view",
      "type": "function"
    },
    {
      "inputs": [
        {
          "internalType": "address",
          "name": "user",
          "type": "address"
        },
        {
          "internalType": "uint256",
          "name": "amount",
          "type": "uint256"
        }
      ],
      "name": "withdrawFromAave",
      "outputs": [],
      "stateMutability": "nonpayable",
      "type": "function"
    }
  ],
  "bytecode": "0x60c06040523480156200001157600080fd5b5060405162003d5438038062003d548339818101604052810190620000379190620001f1565b6001620000596200004d6200015260201b60201c565b6200017d60201b60201c565b600001819055508273ffffffffffffffffffffffffffffffffffffffff1660808173ffffffffffffffffffffffffffffffffffffffff16815250508173ffffffffffffffffffffffffffffffffffffffff1660a08173ffffffffffffffffffffffffffffffffffffffff1681525050806000806101000a81548173ffffffffffffffffffffffffffffffffffffffff021916908373ffffffffffffffffffffffffffffffffffffffff16021790555033600160006101000a81548173ffffffffffffffffffffffffffffffffffffffff021916908373ffffffffffffffffffffffffffffffffffffffff1602179055505050506200024d565b60007f9b779b17422d0df92223018b32b4d1fa46e071723d6817e2486d003becc55f0060001b905090565b6000819050919050565b600080fd5b600073ffffffffffffffffffffffffffffffffffffffff82169050919050565b6000620001b9826200018c565b9050919050565b620001cb81620001ac565b8114620001d757600080fd5b50565b600081519050620001eb81620001c0565b92915050565b6000806000606084860312156200020d576200020c62000187565b5b60006200021d86828701620001da565b93505060206200023086828701620001da565b92505060406200024386828701620001da565b9150509250925092565b60805160a051613a71620002e3600039600081816109ba01528181610f76015281816117070152818161178a01528181611eba0152818161232201526123a50152600081816107c5015281816109f601528181610bdf01528181610fb2015281816116cb015281816117c601528181611f29015281816122e6015281816123e1015281816124ae015261263c0152613a716000f3fe608060405234801561001057600080fd5b506004361061012c5760003560e01c80638da5cb5b116100ad578063cf9144a311610071578063cf9144a314610336578063db2e21bc14610366578063e76db7b314610370578063f8c83e22146103a0578063fc7e286d146103aa5761012c565b80638da5cb5b146102925780639794c170146102b0578063a03e4bc3146102e0578063b6b55f25146102fe578063c2379db21461031a5761012c565b8063529d4252116100f4578063529d4252146101ed5780637399812514610209578063790b50e31461022557806380ed319f1461025857806386e060b3146102745761012c565b8063199944421461013157806334d2b6241461014d5780633e413bee14610180578063477348921461019e578063487ede04146101d1575b600080fd5b61014b6004803603810190610146919061297f565b6103da565b005b6101676004803603810190610162919061297f565b610af8565b6040516101779493929190612a7f565b60405180910390f35b610188610bdd565b6040516101959190612b2a565b60405180910390f35b6101b860048036038101906101b3919061297f565b610c01565b6040516101c89493929190612b45565b60405180910390f35b6101eb60048036038101906101e69190612bb6565b610d23565b005b61020760048036038101906102029190612c5b565b611090565b005b610223600480360381019061021e9190612bb6565b611435565b005b61023f600480360381019061023a919061297f565b611895565b60405161024f9493929190612a7f565b60405180910390f35b610272600480360381019061026d9190612ccf565b611a1a565b005b61027c611e4e565b6040516102899190612d57565b60405180910390f35b61029a611e72565b6040516102a79190612d57565b60405180910390f35b6102ca60048036038101906102c5919061297f565b611e98565b6040516102d79190612d72565b60405180910390f35b6102e8611eb8565b6040516102f59190612dae565b60405180910390f35b61031860048036038101906103139190612dc9565b611edc565b005b610334600480360381019061032f919061297f565b612112565b005b610350600480360381019061034b919061297f565b6121e5565b60405161035d9190612df6565b60405180910390f35b61036e6121fd565b005b61038a6004803603810190610385919061297f565b612778565b6040516103979190612df6565b60405180910390f35b6103a8612790565b005b6103c460048036038101906103bf919061297f565b61282d565b6040516103d19190612df6565b60405180910390f35b60008054906101000a900473ffffffffffffffffffffffffffffffffffffffff1673ffffffffffffffffffffffffffffffffffffffff163373ffffffffffffffffffffffffffffffffffffffff1614610468576040517f08c379a000000000000000000000000000000000000000000000000000000000815260040161045f90612e5d565b60405180910390fd5b80600560008273ffffffffffffffffffffffffffffffffffffffff1673ffffffffffffffffffffffffffffffffffffffff16815260200190815260200160002060009054906101000a900460ff166104f5576040517f08c379a00000000000000000000000000000000000000000000000000000000081526004016104ec90612ec9565b60405180910390fd5b6104fd612845565b6000600660008473ffffffffffffffffffffffffffffffffffffffff1673ffffffffffffffffffffffffffffffffffffffff1681526020019081526020016000206040518060800160405290816000820160009054906101000a900473ffffffffffffffffffffffffffffffffffffffff1673ffffffffffffffffffffffffffffffffffffffff1673ffffffffffffffffffffffffffffffffffffffff168152602001600182015481526020016002820180546105b990612f18565b80601f01602080910402602001604051908101604052809291908181526020018280546105e590612f18565b80156106325780601f1061060757610100808354040283529160200191610632565b820191906000526020600020905b81548152906001019060200180831161061557829003601f168201915b505050505081526020016003820160009054906101000a900460ff1615151515815250509050806060015161069c576040517f08c379a000000000000000000000000000000000000000000000000000000000815260040161069390612f95565b60405180910390fd5b60008160200151116106e3576040517f08c379a00000000000000000000000000000000000000000000000000000000081526004016106da90613001565b60405180910390fd5b8060200151600260008573ffffffffffffffffffffffffffffffffffffffff1673ffffffffffffffffffffffffffffffffffffffff168152602001908152602001600020541015610769576040517f08c379a00000000000000000000000000000000000000000000000000000000081526004016107609061306d565b60405180910390fd5b8060200151600260008573ffffffffffffffffffffffffffffffffffffffff1673ffffffffffffffffffffffffffffffffffffffff16815260200190815260200160002060008282546107bc91906130bc565b925050819055507f000000000000000000000000000000000000000000000000000000000000000073ffffffffffffffffffffffffffffffffffffffff1663a9059cbb826000015183602001516040518363ffffffff1660e01b81526004016108269291906130f0565b6020604051808303816000875af1158015610845573d6000803e3d6000fd5b505050506040513d601f19601f820116820180604052508101906108699190613145565b508060200151600260008573ffffffffffffffffffffffffffffffffffffffff1673ffffffffffffffffffffffffffffffffffffffff168152602001908152602001600020541080156108ff57508060200151600360008573ffffffffffffffffffffffffffffffffffffffff1673ffffffffffffffffffffffffffffffffffffffff1681526020019081526020016000205410155b15610a7e578060200151600360008573ffffffffffffffffffffffffffffffffffffffff1673ffffffffffffffffffffffffffffffffffffffff168152602001908152602001600020600082825461095791906130bc565b925050819055508060200151600260008573ffffffffffffffffffffffffffffffffffffffff1673ffffffffffffffffffffffffffffffffffffffff16815260200190815260200160002060008282546109b19190613172565b925050819055507f000000000000000000000000000000000000000000000000000000000000000073ffffffffffffffffffffffffffffffffffffffff166369328dec7f00000000000000000000000000000000000000000000000000000000000000008360200151306040518463ffffffff1660e01b8152600401610a39939291906131a6565b6020604051808303816000875af1158015610a58573d6000803e3d6000fd5b505050506040513d601f19601f82011682018060405250810190610a7c91906131f2565b505b806000015173ffffffffffffffffffffffffffffffffffffffff168373ffffffffffffffffffffffffffffffffffffffff167fd52bd61f7c422d441e024604f4517878fd3305d6acf0fe37baef23ed21af6bc98360200151604051610ae39190612df6565b60405180910390a350610af4612868565b5050565b60066020528060005260406000206000915090508060000160009054906101000a900473ffffffffffffffffffffffffffffffffffffffff1690806001015490806002018054610b4790612f18565b80601f0160208091040260200160405190810160405280929190818152602001828054610b7390612f18565b8015610bc05780601f10610b9557610100808354040283529160200191610bc0565b820191906000526020600020905b815481529060010190602001808311610ba357829003601f168201915b5050505050908060030160009054906101000a900460ff16905084565b7f000000000000000000000000000000000000000000000000000000000000000081565b600080600080600260008673ffffffffffffffffffffffffffffffffffffffff1673ffffffffffffffffffffffffffffffffffffffff16815260200190815260200160002054600360008773ffffffffffffffffffffffffffffffffffffffff1673ffffffffffffffffffffffffffffffffffffffff16815260200190815260200160002054600460008873ffffffffffffffffffffffffffffffffffffffff1673ffffffffffffffffffffffffffffffffffffffff16815260200190815260200160002054600560008973ffffffffffffffffffffffffffffffffffffffff1673ffffffffffffffffffffffffffffffffffffffff16815260200190815260200160002060009054906101000a900460ff1693509350935093509193509193565b60008054906101000a900473ffffffffffffffffffffffffffffffffffffffff1673ffffffffffffffffffffffffffffffffffffffff163373ffffffffffffffffffffffffffffffffffffffff1614610db1576040517f08c379a0000000000000000000000000000000000000000000000000000000008152600401610da890612e5d565b60405180910390fd5b81600560008273ffffffffffffffffffffffffffffffffffffffff1673ffffffffffffffffffffffffffffffffffffffff16815260200190815260200160002060009054906101000a900460ff16610e3e576040517f08c379a0000000000000000000000000000000000000000000000000000000008152600401610e3590612ec9565b60405180910390fd5b610e46612845565b81600360008573ffffffffffffffffffffffffffffffffffffffff1673ffffffffffffffffffffffffffffffffffffffff168152602001908152602001600020541015610ec8576040517f08c379a0000000000000000000000000000000000000000000000000000000008152600401610ebf9061326b565b60405180910390fd5b81600360008573ffffffffffffffffffffffffffffffffffffffff1673ffffffffffffffffffffffffffffffffffffffff1681526020019081526020016000206000828254610f1791906130bc565b9250508190555081600260008573ffffffffffffffffffffffffffffffffffffffff1673ffffffffffffffffffffffffffffffffffffffff1681526020019081526020016000206000828254610f6d9190613172565b925050819055507f000000000000000000000000000000000000000000000000000000000000000073ffffffffffffffffffffffffffffffffffffffff166369328dec7f000000000000000000000000000000000000000000000000000000000000000084306040518463ffffffff1660e01b8152600401610ff1939291906131a6565b6020604051808303816000875af1158015611010573d6000803e3d6000fd5b505050506040513d601f19601f8201168201806040525081019061103491906131f2565b508273ffffffffffffffffffffffffffffffffffffffff167fdf67f60de178af7df2d3670e7e7f4d97b8933cc7636022bdc016c2ecf4e0e97d8360405161107b9190612df6565b60405180910390a261108b612868565b505050565b600560003373ffffffffffffffffffffffffffffffffffffffff1673ffffffffffffffffffffffffffffffffffffffff16815260200190815260200160002060009054906101000a900460ff1661111c576040517f08c379a0000000000000000000000000000000000000000000000000000000008152600401611113906132d7565b60405180910390fd5b600073ffffffffffffffffffffffffffffffffffffffff168473ffffffffffffffffffffffffffffffffffffffff160361118b576040517f08c379a000000000000000000000000000000000000000000000000000000000815260040161118290613343565b60405180910390fd5b600083116111ce576040517f08c379a00000000000000000000000000000000000000000000000000000000081526004016111c5906133af565b60405180910390fd5b60405180608001604052808573ffffffffffffffffffffffffffffffffffffffff16815260200184815260200183838080601f016020809104026020016040519081016040528093929190818152602001838380828437600081840152601f19601f82011690508083019250505050505050815260200160011515815250600660003373ffffffffffffffffffffffffffffffffffffffff1673ffffffffffffffffffffffffffffffffffffffff16815260200190815260200160002060008201518160000160006101000a81548173ffffffffffffffffffffffffffffffffffffffff021916908373ffffffffffffffffffffffffffffffffffffffff1602179055506020820151816001015560408201518160020190816112f191906135a0565b5060608201518160030160006101000a81548160ff02191690831515021790555090505082600260003373ffffffffffffffffffffffffffffffffffffffff1673ffffffffffffffffffffffffffffffffffffffff168152602001908152602001600020541015611397576040517f08c379a000000000000000000000000000000000000000000000000000000000815260040161138e906136be565b60405180910390fd5b82600460003373ffffffffffffffffffffffffffffffffffffffff1673ffffffffffffffffffffffffffffffffffffffff168152602001908152602001600020819055503373ffffffffffffffffffffffffffffffffffffffff167f3d1d61daa41cc5e16943134e4814c18d54f8cfa2505fe9b163831305e11dcc3f85858585604051611427949392919061371a565b60405180910390a250505050565b60008054906101000a900473ffffffffffffffffffffffffffffffffffffffff1673ffffffffffffffffffffffffffffffffffffffff163373ffffffffffffffffffffffffffffffffffffffff16146114c3576040517f08c379a00000000000000000000000000000000000000000000000000000000081526004016114ba90612e5d565b60405180910390fd5b81600560008273ffffffffffffffffffffffffffffffffffffffff1673ffffffffffffffffffffffffffffffffffffffff16815260200190815260200160002060009054906101000a900460ff16611550576040517f08c379a000000000000000000000000000000000000000000000000000000000815260040161154790612ec9565b60405180910390fd5b611558612845565b81600260008573ffffffffffffffffffffffffffffffffffffffff1673ffffffffffffffffffffffffffffffffffffffff1681526020019081526020016000205410156115da576040517f08c379a00000000000000000000000000000000000000000000000000000000081526004016115d1906137a6565b60405180910390fd5b6000821161161d576040517f08c379a0000000000000000000000000000000000000000000000000000000008152600401611614906133af565b60405180910390fd5b81600260008573ffffffffffffffffffffffffffffffffffffffff1673ffffffffffffffffffffffffffffffffffffffff168152602001908152602001600020600082825461166c91906130bc565b9250508190555081600360008573ffffffffffffffffffffffffffffffffffffffff1673ffffffffffffffffffffffffffffffffffffffff16815260200190815260200160002060008282546116c29190613172565b925050819055507f000000000000000000000000000000000000000000000000000000000000000073ffffffffffffffffffffffffffffffffffffffff1663095ea7b37f0000000000000000000000000000000000000000000000000000000000000000846040518363ffffffff1660e01b81526004016117449291906130f0565b6020604051808303816000875af1158015611763573d6000803e3d6000fd5b505050506040513d601f19601f820116820180604052508101906117879190613145565b507f000000000000000000000000000000000000000000000000000000000000000073ffffffffffffffffffffffffffffffffffffffff1663617ba0377f0000000000000000000000000000000000000000000000000000000000000000843060006040518563ffffffff1660e01b8152600401611808949392919061380f565b600060405180830381600087803b15801561182257600080fd5b505af1158015611836573d6000803e3d6000fd5b505050508273ffffffffffffffffffffffffffffffffffffffff167fbab71f3a8d032933072a16c3bd550007c506eca1914bae1d351bfec556f07cbd836040516118809190612df6565b60405180910390a2611890612868565b505050565b6000806060600080600660008773ffffffffffffffffffffffffffffffffffffffff1673ffffffffffffffffffffffffffffffffffffffff1681526020019081526020016000206040518060800160405290816000820160009054906101000a900473ffffffffffffffffffffffffffffffffffffffff1673ffffffffffffffffffffffffffffffffffffffff1673ffffffffffffffffffffffffffffffffffffffff1681526020016001820154815260200160028201805461195790612f18565b80601f016020809104026020016040519081016040528092919081815260200182805461198390612f18565b80156119d05780601f106119a5576101008083540402835291602001916119d0565b820191906000526020600020905b8154815290600101906020018083116119b357829003601f168201915b505050505081526020016003820160009054906101000a900460ff161515151581525050905080600001518160200151826040015183606001519450945094509450509193509193565b60008054906101000a900473ffffffffffffffffffffffffffffffffffffffff1673ffffffffffffffffffffffffffffffffffffffff163373ffffffffffffffffffffffffffffffffffffffff1614611aa8576040517f08c379a0000000000000000000000000000000000000000000000000000000008152600401611a9f90612e5d565b60405180910390fd5b600560008673ffffffffffffffffffffffffffffffffffffffff1673ffffffffffffffffffffffffffffffffffffffff16815260200190815260200160002060009054906101000a900460ff16611b34576040517f08c379a0000000000000000000000000000000000000000000000000000000008152600401611b2b906138a0565b60405180910390fd5b600073ffffffffffffffffffffffffffffffffffffffff168473ffffffffffffffffffffffffffffffffffffffff1603611ba3576040517f08c379a0000000000000000000000000000000000000000000000000000000008152600401611b9a90613343565b60405180910390fd5b60008311611be6576040517f08c379a0000000000000000000000000000000000000000000000000000000008152600401611bdd906133af565b60405180910390fd5b82600260008773ffffffffffffffffffffffffffffffffffffffff1673ffffffffffffffffffffffffffffffffffffffff168152602001908152602001600020541015611c68576040517f08c379a0000000000000000000000000000000000000000000000000000000008152600401611c5f9061390c565b60405180910390fd5b60405180608001604052808573ffffffffffffffffffffffffffffffffffffffff16815260200184815260200183838080601f016020809104026020016040519081016040528093929190818152602001838380828437600081840152601f19601f82011690508083019250505050505050815260200160011515815250600660008773ffffffffffffffffffffffffffffffffffffffff1673ffffffffffffffffffffffffffffffffffffffff16815260200190815260200160002060008201518160000160006101000a81548173ffffffffffffffffffffffffffffffffffffffff021916908373ffffffffffffffffffffffffffffffffffffffff160217905550602082015181600101556040820151816002019081611d8b91906135a0565b5060608201518160030160006101000a81548160ff02191690831515021790555090505082600460008773ffffffffffffffffffffffffffffffffffffffff1673ffffffffffffffffffffffffffffffffffffffff168152602001908152602001600020819055508473ffffffffffffffffffffffffffffffffffffffff167f3d1d61daa41cc5e16943134e4814c18d54f8cfa2505fe9b163831305e11dcc3f85858585604051611e3f949392919061371a565b60405180910390a25050505050565b60008054906101000a900473ffffffffffffffffffffffffffffffffffffffff1681565b600160009054906101000a900473ffffffffffffffffffffffffffffffffffffffff1681565b60056020528060005260406000206000915054906101000a900460ff1681565b7f000000000000000000000000000000000000000000000000000000000000000081565b611ee4612845565b60008111611f27576040517f08c379a0000000000000000000000000000000000000000000000000000000008152600401611f1e906133af565b60405180910390fd5b7f000000000000000000000000000000000000000000000000000000000000000073ffffffffffffffffffffffffffffffffffffffff166323b872dd3330846040518463ffffffff1660e01b8152600401611f849392919061392c565b6020604051808303816000875af1158015611fa3573d6000803e3d6000fd5b505050506040513d601f19601f82011682018060405250810190611fc79190613145565b5080600260003373ffffffffffffffffffffffffffffffffffffffff1673ffffffffffffffffffffffffffffffffffffffff16815260200190815260200160002060008282546120179190613172565b925050819055506001600560003373ffffffffffffffffffffffffffffffffffffffff1673ffffffffffffffffffffffffffffffffffffffff16815260200190815260200160002060006101000a81548160ff0219169083151502179055503373ffffffffffffffffffffffffffffffffffffffff167f2da466a7b24304f47e87fa2e1e5a81b9831ce54fec19055ce277ca2f39ba42c4826040516120bc9190612df6565b60405180910390a23373ffffffffffffffffffffffffffffffffffffffff167ff5e2fa5714d0b6b403df191ede24673b96333ece239c1c0dc32962501c5da82e60405160405180910390a261210f612868565b50565b600160009054906101000a900473ffffffffffffffffffffffffffffffffffffffff1673ffffffffffffffffffffffffffffffffffffffff163373ffffffffffffffffffffffffffffffffffffffff16146121a2576040517f08c379a0000000000000000000000000000000000000000000000000000000008152600401612199906139af565b60405180910390fd5b806000806101000a81548173ffffffffffffffffffffffffffffffffffffffff021916908373ffffffffffffffffffffffffffffffffffffffff16021790555050565b60036020528060005260406000206000915090505481565b612205612845565b6000600260003373ffffffffffffffffffffffffffffffffffffffff1673ffffffffffffffffffffffffffffffffffffffff1681526020019081526020016000205490506000600360003373ffffffffffffffffffffffffffffffffffffffff1673ffffffffffffffffffffffffffffffffffffffff168152602001908152602001600020549050600082118061229c5750600081115b6122db576040517f08c379a00000000000000000000000000000000000000000000000000000000081526004016122d290613a1b565b60405180910390fd5b60008111156124aa577f000000000000000000000000000000000000000000000000000000000000000073ffffffffffffffffffffffffffffffffffffffff1663095ea7b37f0000000000000000000000000000000000000000000000000000000000000000836040518363ffffffff1660e01b815260040161235f9291906130f0565b6020604051808303816000875af115801561237e573d6000803e3d6000fd5b505050506040513d601f19601f820116820180604052508101906123a29190613145565b507f000000000000000000000000000000000000000000000000000000000000000073ffffffffffffffffffffffffffffffffffffffff166369328dec7f000000000000000000000000000000000000000000000000000000000000000083306040518463ffffffff1660e01b8152600401612420939291906131a6565b6020604051808303816000875af115801561243f573d6000803e3d6000fd5b505050506040513d601f19601f8201168201806040525081019061246391906131f2565b506000600360003373ffffffffffffffffffffffffffffffffffffffff1673ffffffffffffffffffffffffffffffffffffffff168152602001908152602001600020819055505b60007f000000000000000000000000000000000000000000000000000000000000000073ffffffffffffffffffffffffffffffffffffffff166370a08231306040518263ffffffff1660e01b81526004016125059190612d57565b602060405180830381865afa158015612522573d6000803e3d6000fd5b505050506040513d601f19601f8201168201806040525081019061254691906131f2565b9050600082846125569190613172565b90506000600260003373ffffffffffffffffffffffffffffffffffffffff1673ffffffffffffffffffffffffffffffffffffffff168152602001908152602001600020819055506000600460003373ffffffffffffffffffffffffffffffffffffffff1673ffffffffffffffffffffffffffffffffffffffff168152602001908152602001600020819055506000600560003373ffffffffffffffffffffffffffffffffffffffff1673ffffffffffffffffffffffffffffffffffffffff16815260200190815260200160002060006101000a81548160ff0219169083151502179055507f000000000000000000000000000000000000000000000000000000000000000073ffffffffffffffffffffffffffffffffffffffff1663a9059cbb33836040518363ffffffff1660e01b81526004016126959291906130f0565b6020604051808303816000875af11580156126b4573d6000803e3d6000fd5b505050506040513d601f19601f820116820180604052508101906126d89190613145565b503373ffffffffffffffffffffffffffffffffffffffff167f7084f5476618d8e60b11ef0d7d3f06914655adb8793e28ff7f018d4c76d505d58260405161271f9190612df6565b60405180910390a23373ffffffffffffffffffffffffffffffffffffffff167f9c4b1ed0ed189efc6a57e7d998a10db67480b9856d32d39be0621e2da388f74360405160405180910390a250505050612776612868565b565b60046020528060005260406000206000915090505481565b6000600560003373ffffffffffffffffffffffffffffffffffffffff1673ffffffffffffffffffffffffffffffffffffffff16815260200190815260200160002060006101000a81548160ff0219169083151502179055503373ffffffffffffffffffffffffffffffffffffffff167f9c4b1ed0ed189efc6a57e7d998a10db67480b9856d32d39be0621e2da388f74360405160405180910390a2565b60026020528060005260406000206000915090505481565b61284d612883565b600261285f61285a6128c4565b6128ef565b60000181905550565b600161287a6128756128c4565b6128ef565b60000181905550565b61288b6128f9565b156128c2576040517f3ee5aeb500000000000000000000000000000000000000000000000000000000815260040160405180910390fd5b565b60007f9b779b17422d0df92223018b32b4d1fa46e071723d6817e2486d003becc55f0060001b905090565b6000819050919050565b6000600261290d6129086128c4565b6128ef565b6000015414905090565b600080fd5b600080fd5b600073ffffffffffffffffffffffffffffffffffffffff82169050919050565b600061294c82612921565b9050919050565b61295c81612941565b811461296757600080fd5b50565b60008135905061297981612953565b92915050565b60006020828403121561299557612994612917565b5b60006129a38482850161296a565b91505092915050565b6129b581612941565b82525050565b6000819050919050565b6129ce816129bb565b82525050565b600081519050919050565b600082825260208201905092915050565b60005b83811015612a0e5780820151818401526020810190506129f3565b60008484015250505050565b6000601f19601f8301169050919050565b6000612a36826129d4565b612a4081856129df565b9350612a508185602086016129f0565b612a5981612a1a565b840191505092915050565b60008115159050919050565b612a7981612a64565b82525050565b6000608082019050612a9460008301876129ac565b612aa160208301866129c5565b8181036040830152612ab38185612a2b565b9050612ac26060830184612a70565b95945050505050565b6000819050919050565b6000612af0612aeb612ae684612921565b612acb565b612921565b9050919050565b6000612b0282612ad5565b9050919050565b6000612b1482612af7565b9050919050565b612b2481612b09565b82525050565b6000602082019050612b3f6000830184612b1b565b92915050565b6000608082019050612b5a60008301876129c5565b612b6760208301866129c5565b612b7460408301856129c5565b612b816060830184612a70565b95945050505050565b612b93816129bb565b8114612b9e57600080fd5b50565b600081359050612bb081612b8a565b92915050565b60008060408385031215612bcd57612bcc612917565b5b6000612bdb8582860161296a565b9250506020612bec85828601612ba1565b9150509250929050565b600080fd5b600080fd5b600080fd5b60008083601f840112612c1b57612c1a612bf6565b5b8235905067ffffffffffffffff811115612c3857612c37612bfb565b5b602083019150836001820283011115612c5457612c53612c00565b5b9250929050565b60008060008060608587031215612c7557612c74612917565b5b6000612c838782880161296a565b9450506020612c9487828801612ba1565b935050604085013567ffffffffffffffff811115612cb557612cb461291c565b5b612cc187828801612c05565b925092505092959194509250565b600080600080600060808688031215612ceb57612cea612917565b5b6000612cf98882890161296a565b9550506020612d0a8882890161296a565b9450506040612d1b88828901612ba1565b935050606086013567ffffffffffffffff811115612d3c57612d3b61291c565b5b612d4888828901612c05565b92509250509295509295909350565b6000602082019050612d6c60008301846129ac565b92915050565b6000602082019050612d876000830184612a70565b92915050565b6000612d9882612af7565b9050919050565b612da881612d8d565b82525050565b6000602082019050612dc36000830184612d9f565b92915050565b600060208284031215612ddf57612dde612917565b5b6000612ded84828501612ba1565b91505092915050565b6000602082019050612e0b60008301846129c5565b92915050565b7f4f6e6c79206275746c6572206167656e742063616e2063616c6c207468697300600082015250565b6000612e47601f836129df565b9150612e5282612e11565b602082019050919050565b60006020820190508181036000830152612e7681612e3a565b9050919050565b7f4275746c6572206e6f742061637469766520666f722074686973207573657200600082015250565b6000612eb3601f836129df565b9150612ebe82612e7d565b602082019050919050565b60006020820190508181036000830152612ee281612ea6565b9050919050565b7f4e487b7100000000000000000000000000000000000000000000000000000000600052602260045260246000fd5b60006002820490506001821680612f3057607f821691505b602082108103612f4357612f42612ee9565b5b50919050565b7f4e6f20616374697665207061796d656e742072756c6500000000000000000000600082015250565b6000612f7f6016836129df565b9150612f8a82612f49565b602082019050919050565b60006020820190508181036000830152612fae81612f72565b9050919050565b7f496e76616c6964207061796d656e7420616d6f756e7400000000000000000000600082015250565b6000612feb6016836129df565b9150612ff682612fb5565b602082019050919050565b6000602082019050818103600083015261301a81612fde565b9050919050565b7f496e73756666696369656e742062616c616e636520666f72207061796d656e74600082015250565b60006130576020836129df565b915061306282613021565b602082019050919050565b600060208201905081810360008301526130868161304a565b9050919050565b7f4e487b7100000000000000000000000000000000000000000000000000000000600052601160045260246000fd5b60006130c7826129bb565b91506130d2836129bb565b92508282039050818111156130ea576130e961308d565b5b92915050565b600060408201905061310560008301856129ac565b61311260208301846129c5565b9392505050565b61312281612a64565b811461312d57600080fd5b50565b60008151905061313f81613119565b92915050565b60006020828403121561315b5761315a612917565b5b600061316984828501613130565b91505092915050565b600061317d826129bb565b9150613188836129bb565b92508282019050808211156131a05761319f61308d565b5b92915050565b60006060820190506131bb60008301866129ac565b6131c860208301856129c5565b6131d560408301846129ac565b949350505050565b6000815190506131ec81612b8a565b92915050565b60006020828403121561320857613207612917565b5b6000613216848285016131dd565b91505092915050565b7f496e73756666696369656e7420416176652062616c616e636500000000000000600082015250565b60006132556019836129df565b91506132608261321f565b602082019050919050565b6000602082019050818103600083015261328481613248565b9050919050565b7f4465706f73697420666972737420746f206163746976617465206275746c6572600082015250565b60006132c16020836129df565b91506132cc8261328b565b602082019050919050565b600060208201905081810360008301526132f0816132b4565b9050919050565b7f496e76616c696420726563697069656e74000000000000000000000000000000600082015250565b600061332d6011836129df565b9150613338826132f7565b602082019050919050565b6000602082019050818103600083015261335c81613320565b9050919050565b7f416d6f756e74206d7573742062652067726561746572207468616e207a65726f600082015250565b60006133996020836129df565b91506133a482613363565b602082019050919050565b600060208201905081810360008301526133c88161338c565b9050919050565b7f4e487b7100000000000000000000000000000000000000000000000000000000600052604160045260246000fd5b60008190508160005260206000209050919050565b60006020601f8301049050919050565b600082821b905092915050565b6000600883026134607fffffffffffffffffffffffffffffffffffffffffffffffffffffffffffffffff82613423565b61346a8683613423565b95508019841693508086168417925050509392505050565b600061349d613498613493846129bb565b612acb565b6129bb565b9050919050565b6000819050919050565b6134b783613482565b6134cb6134c3826134a4565b848454613430565b825550505050565b600090565b6134e06134d3565b6134eb8184846134ae565b505050565b5b8181101561350f576135046000826134d8565b6001810190506134f1565b5050565b601f82111561355457613525816133fe565b61352e84613413565b8101602085101561353d578190505b61355161354985613413565b8301826134f0565b50505b505050565b600082821c905092915050565b600061357760001984600802613559565b1980831691505092915050565b60006135908383613566565b9150826002028217905092915050565b6135a9826129d4565b67ffffffffffffffff8111156135c2576135c16133cf565b5b6135cc8254612f18565b6135d7828285613513565b600060209050601f83116001811461360a57600084156135f8578287015190505b6136028582613584565b86555061366a565b601f198416613618866133fe565b60005b828110156136405784890151825560018201915060208501945060208101905061361b565b8683101561365d5784890151613659601f891682613566565b8355505b6001600288020188555050505b505050505050565b7f496e73756666696369656e742062616c616e636520666f722072657365727665600082015250565b60006136a86020836129df565b91506136b382613672565b602082019050919050565b600060208201905081810360008301526136d78161369b565b9050919050565b82818337600083830152505050565b60006136f983856129df565b93506137068385846136de565b61370f83612a1a565b840190509392505050565b600060608201905061372f60008301876129ac565b61373c60208301866129c5565b818103604083015261374f8184866136ed565b905095945050505050565b7f496e73756666696369656e74207661756c742062616c616e6365000000000000600082015250565b6000613790601a836129df565b915061379b8261375a565b602082019050919050565b600060208201905081810360008301526137bf81613783565b9050919050565b6000819050919050565b600061ffff82169050919050565b60006137f96137f46137ef846137c6565b612acb565b6137d0565b9050919050565b613809816137de565b82525050565b600060808201905061382460008301876129ac565b61383160208301866129c5565b61383e60408301856129ac565b61384b6060830184613800565b95945050505050565b7f5573657220686173206e6f7420616374697661746564206275746c6572000000600082015250565b600061388a601d836129df565b915061389582613854565b602082019050919050565b600060208201905081810360008301526138b98161387d565b9050919050565b7f496e73756666696369656e742062616c616e6365000000000000000000000000600082015250565b60006138f66014836129df565b9150613901826138c0565b602082019050919050565b60006020820190508181036000830152613925816138e9565b9050919050565b600060608201905061394160008301866129ac565b61394e60208301856129ac565b61395b60408301846129c5565b949350505050565b7f4f6e6c79206f776e657200000000000000000000000000000000000000000000600082015250565b6000613999600a836129df565b91506139a482613963565b602082019050919050565b600060208201905081810360008301526139c88161398c565b9050919050565b7f4e6f7468696e6720746f20776974686472617700000000000000000000000000600082015250565b6000613a056013836129df565b9150613a10826139cf565b602082019050919050565b60006020820190508181036000830152613a34816139f8565b905091905056fea26469706673582212207197d330250794e2f7b141c06ab4fe9292322f80e8b5528858f3cab2db53a37164736f6c63430008140033",
  "linkReferences": {},
  "deployedLinkReferences": {}
}