{
  "_format": "hh-sol-artifact-1",
  "contractName": "ButlerVault",
  "sourceName": "contracts/ButlerVault.sol",
  "abi": [
    {
      "inputs": [
        {
          "internalType": "address",
          "name": "_usdc",
          "type": "address"
        },
        {
          "internalType": "address",
          "name": "_aavePool",
          "type": "address"
        },
        {
          "internalType": "address",
          "name": "_butlerAgent",
          "type": "address"
        }
      ],
      "stateMutability": "nonpayable",
      "type": "constructor"
    },
    {
      "inputs": [],
      "name": "ReentrancyGuardReentrantCall",
      "type": "error"
    },
    {
      "anonymous": false,
      "inputs": [
        {
          "indexed": true,
          "internalType": "address",
          "name": "user",
          "type": "address"
        }
      ],
      "name": "ButlerActivated",
      "type": "event"
    },
    {
      "anonymous": false,
      "inputs": [
        {
          "indexed": true,
          "internalType": "address",
          "name": "user",
          "type": "address"
        }
      ],
      "name": "ButlerRevoked",
      "type": "event"
    },
    {
      "anonymous": false,
      "inputs": [
        {
          "indexed": true,
          "internalType": "address",
          "name": "user",
          "type": "address"
        },
        {
          "indexed": false,
          "internalType": "uint256",
          "name": "amount",
          "type": "uint256"
        }
      ],
      "name": "DeployedToAave",
      "type": "event"
    },
    {
      "anonymous": false,
      "inputs": [
        {
          "indexed": true,
          "internalType": "address",
          "name": "user",
          "type": "address"
        },
        {
          "indexed": false,
          "internalType": "uint256",
          "name": "amount",
          "type": "uint256"
        }
      ],
      "name": "Deposited",
      "type": "event"
    },
    {
      "anonymous": false,
      "inputs": [
        {
          "indexed": true,
          "internalType": "address",
          "name": "from",
          "type": "address"
        },
        {
          "indexed": true,
          "internalType": "address",
          "name": "to",
          "type": "address"
        },
        {
          "indexed": false,
          "internalType": "uint256",
          "name": "amount",
          "type": "uint256"
        }
      ],
      "name": "PaymentSent",
      "type": "event"
    },
    {
      "anonymous": false,
      "inputs": [
        {
          "indexed": true,
          "internalType": "address",
          "name": "user",
          "type": "address"
        },
        {
          "indexed": false,
          "internalType": "address",
          "name": "recipient",
          "type": "address"
        },
        {
          "indexed": false,
          "internalType": "uint256",
          "name": "amount",
          "type": "uint256"
        },
        {
          "indexed": false,
          "internalType": "string",
          "name": "schedule",
          "type": "string"
        }
      ],
      "name": "RuleSet",
      "type": "event"
    },
    {
      "anonymous": false,
      "inputs": [
        {
          "indexed": true,
          "internalType": "address",
          "name": "user",
          "type": "address"
        },
        {
          "indexed": false,
          "internalType": "uint256",
          "name": "amount",
          "type": "uint256"
        }
      ],
      "name": "Withdrawn",
      "type": "event"
    },
    {
      "anonymous": false,
      "inputs": [
        {
          "indexed": true,
          "internalType": "address",
          "name": "user",
          "type": "address"
        },
        {
          "indexed": false,
          "internalType": "uint256",
          "name": "amount",
          "type": "uint256"
        }
      ],
      "name": "WithdrawnFromAave",
      "type": "event"
    },
    {
      "inputs": [
        {
          "internalType": "address",
          "name": "",
          "type": "address"
        }
      ],
      "name": "aaveDeposits",
      "outputs": [
        {
          "internalType": "uint256",
          "name": "",
          "type": "uint256"
        }
      ],
      "stateMutability": "view",
      "type": "function"
    },
    {
      "inputs": [],
      "name": "aavePool",
      "outputs": [
        {
          "internalType": "contract IAavePool",
          "name": "",
          "type": "address"
        }
      ],
      "stateMutability": "view",
      "type": "function"
    },
    {
      "inputs": [
        {
          "internalType": "address",
          "name": "",
          "type": "address"
        }
      ],
      "name": "butlerActive",
      "outputs": [
        {
          "internalType": "bool",
          "name": "",
          "type": "bool"
        }
      ],
      "stateMutability": "view",
      "type": "function"
    },
    {
      "inputs": [],
      "name": "butlerAgent",
      "outputs": [
        {
          "internalType": "address",
          "name": "",
          "type": "address"
        }
      ],
      "stateMutability": "view",
      "type": "function"
    },
    {
      "inputs": [
        {
          "internalType": "address",
          "name": "user",
          "type": "address"
        },
        {
          "internalType": "uint256",
          "name": "amount",
          "type": "uint256"
        }
      ],
      "name": "deployToAave",
      "outputs": [],
      "stateMutability": "nonpayable",
      "type": "function"
    },
    {
      "inputs": [
        {
          "internalType": "uint256",
          "name": "amount",
          "type": "uint256"
        }
      ],
      "name": "deposit",
      "outputs": [],
      "stateMutability": "nonpayable",
      "type": "function"
    },
    {
      "inputs": [
        {
          "internalType": "address",
          "name": "",
          "type": "address"
        }
      ],
      "name": "deposits",
      "outputs": [
        {
          "internalType": "uint256",
          "name": "",
          "type": "uint256"
        }
      ],
      "stateMutability": "view",
      "type": "function"
    },
    {
      "inputs": [],
      "name": "emergencyWithdraw",
      "outputs": [],
      "stateMutability": "nonpayable",
      "type": "function"
    },
    {
      "inputs": [
        {
          "internalType": "address",
          "name": "user",
          "type": "address"
        }
      ],
      "name": "executePayment",
      "outputs": [],
      "stateMutability": "nonpayable",
      "type": "function"
    },
    {
      "inputs": [
        {
          "internalType": "address",
          "name": "user",
          "type": "address"
        }
      ],
      "name": "getPaymentRule",
      "outputs": [
        {
          "internalType": "address",
          "name": "recipient",
          "type": "address"
        },
        {
          "internalType": "uint256",
          "name": "amount",
          "type": "uint256"
        },
        {
          "internalType": "string",
          "name": "schedule",
          "type": "string"
        },
        {
          "internalType": "bool",
          "name": "active",
          "type": "bool"
        }
      ],
      "stateMutability": "view",
      "type": "function"
    },
    {
      "inputs": [
        {
          "internalType": "address",
          "name": "user",
          "type": "address"
        }
      ],
      "name": "getUserBalance",
      "outputs": [
        {
          "internalType": "uint256",
          "name": "vaultBalance",
          "type": "uint256"
        },
        {
          "internalType": "uint256",
          "name": "aaveBalance",
          "type": "uint256"
        },
        {
          "internalType": "uint256",
          "name": "paymentReserve",
          "type": "uint256"
        },
        {
          "internalType": "bool",
          "name": "isActive",
          "type": "bool"
        }
      ],
      "stateMutability": "view",
      "type": "function"
    },
    {
      "inputs": [],
      "name": "owner",
      "outputs": [
        {
          "internalType": "address",
          "name": "",
          "type": "address"
        }
      ],
      "stateMutability": "view",
      "type": "function"
    },
    {
      "inputs": [
        {
          "internalType": "address",
          "name": "",
          "type": "address"
        }
      ],
      "name": "paymentReserves",
      "outputs": [
        {
          "internalType": "uint256",
          "name": "",
          "type": "uint256"
        }
      ],
      "stateMutability": "view",
      "type": "function"
    },
    {
      "inputs": [
        {
          "internalType": "address",
          "name": "",
          "type": "address"
        }
      ],
      "name": "paymentRules",
      "outputs": [
        {
          "internalType": "address",
          "name": "recipient",
          "type": "address"
        },
        {
          "internalType": "uint256",
          "name": "amount",
          "type": "uint256"
        },
        {
          "internalType": "string",
          "name": "schedule",
          "type": "string"
        },
        {
          "internalType": "bool",
          "name": "active",
          "type": "bool"
        }
      ],
      "stateMutability": "view",
      "type": "function"
    },
    {
      "inputs": [],
      "name": "revokeButler",
      "outputs": [],
      "stateMutability": "nonpayable",
      "type": "function"
    },
    {
      "inputs": [
        {
          "internalType": "address",
          "name": "recipient",
          "type": "address"
        },
        {
          "internalType": "uint256",
          "name": "amount",
          "type": "uint256"
        },
        {
          "internalType": "string",
          "name": "schedule",
          "type": "string"
        }
      ],
      "name": "setPaymentRule",
      "outputs": [],
      "stateMutability": "nonpayable",
      "type": "function"
    },
    {
      "inputs": [
        {
          "internalType": "address",
          "name": "newAgent",
          "type": "address"
        }
      ],
      "name": "updateButlerAgent",
      "outputs": [],
      "stateMutability": "nonpayable",
      "type": "function"
    },
    {
      "inputs": [],
      "name": "usdc",
      "outputs": [
        {
          "internalType": "contract IERC20",
          "name": "",
          "type": "address"
        }
      ],
      "stateMutability": "view",
      "type": "function"
    },
    {
      "inputs": [
        {
          "internalType": "address",
          "name": "user",
          "type": "address"
        },
        {
          "internalType": "uint256",
          "name": "amount",
          "type": "uint256"
        }
      ],
      "name": "withdrawFromAave",
      "outputs": [],
      "stateMutability": "nonpayable",
      "type": "function"
    }
  ],
  "bytecode": "0x60c06040523480156200001157600080fd5b5060405162003799380380620037998339818101604052810190620000379190620001f1565b6001620000596200004d6200015260201b60201c565b6200017d60201b60201c565b600001819055508273ffffffffffffffffffffffffffffffffffffffff1660808173ffffffffffffffffffffffffffffffffffffffff16815250508173ffffffffffffffffffffffffffffffffffffffff1660a08173ffffffffffffffffffffffffffffffffffffffff1681525050806000806101000a81548173ffffffffffffffffffffffffffffffffffffffff021916908373ffffffffffffffffffffffffffffffffffffffff16021790555033600160006101000a81548173ffffffffffffffffffffffffffffffffffffffff021916908373ffffffffffffffffffffffffffffffffffffffff1602179055505050506200024d565b60007f9b779b17422d0df92223018b32b4d1fa46e071723d6817e2486d003becc55f0060001b905090565b6000819050919050565b600080fd5b600073ffffffffffffffffffffffffffffffffffffffff82169050919050565b6000620001b9826200018c565b9050919050565b620001cb81620001ac565b8114620001d757600080fd5b50565b600081519050620001eb81620001c0565b92915050565b6000806000606084860312156200020d576200020c62000187565b5b60006200021d86828701620001da565b93505060206200023086828701620001da565b92505060406200024386828701620001da565b9150509250925092565b60805160a0516134b6620002e36000396000818161099301528181610f4f015281816116e00152818161176301528181611a5f01528181611ec70152611f4a01526000818161079e015281816109cf01528181610bb801528181610f8b015281816116a40152818161179f01528181611ace01528181611e8b01528181611f860152818161205301526121e101526134b66000f3fe608060405234801561001057600080fd5b50600436106101215760003560e01c80638da5cb5b116100ad578063cf9144a311610071578063cf9144a31461030f578063db2e21bc1461033f578063e76db7b314610349578063f8c83e2214610379578063fc7e286d1461038357610121565b80638da5cb5b1461026b5780639794c17014610289578063a03e4bc3146102b9578063b6b55f25146102d7578063c2379db2146102f357610121565b8063487ede04116100f4578063487ede04146101c6578063529d4252146101e257806373998125146101fe578063790b50e31461021a57806386e060b31461024d57610121565b8063199944421461012657806334d2b624146101425780633e413bee146101755780634773489214610193575b600080fd5b610140600480360381019061013b9190612524565b6103b3565b005b61015c60048036038101906101579190612524565b610ad1565b60405161016c9493929190612624565b60405180910390f35b61017d610bb6565b60405161018a91906126cf565b60405180910390f35b6101ad60048036038101906101a89190612524565b610bda565b6040516101bd94939291906126ea565b60405180910390f35b6101e060048036038101906101db919061275b565b610cfc565b005b6101fc60048036038101906101f79190612800565b611069565b005b6102186004803603810190610213919061275b565b61140e565b005b610234600480360381019061022f9190612524565b61186e565b6040516102449493929190612624565b60405180910390f35b6102556119f3565b6040516102629190612874565b60405180910390f35b610273611a17565b6040516102809190612874565b60405180910390f35b6102a3600480360381019061029e9190612524565b611a3d565b6040516102b0919061288f565b60405180910390f35b6102c1611a5d565b6040516102ce91906128cb565b60405180910390f35b6102f160048036038101906102ec91906128e6565b611a81565b005b61030d60048036038101906103089190612524565b611cb7565b005b61032960048036038101906103249190612524565b611d8a565b6040516103369190612913565b60405180910390f35b610347611da2565b005b610363600480360381019061035e9190612524565b61231d565b6040516103709190612913565b60405180910390f35b610381612335565b005b61039d60048036038101906103989190612524565b6123d2565b6040516103aa9190612913565b60405180910390f35b60008054906101000a900473ffffffffffffffffffffffffffffffffffffffff1673ffffffffffffffffffffffffffffffffffffffff163373ffffffffffffffffffffffffffffffffffffffff1614610441576040517f08c379a00000000000000000000000000000000000000000000000000000000081526004016104389061297a565b60405180910390fd5b80600560008273ffffffffffffffffffffffffffffffffffffffff1673ffffffffffffffffffffffffffffffffffffffff16815260200190815260200160002060009054906101000a900460ff166104ce576040517f08c379a00000000000000000000000000000000000000000000000000000000081526004016104c5906129e6565b60405180910390fd5b6104d66123ea565b6000600660008473ffffffffffffffffffffffffffffffffffffffff1673ffffffffffffffffffffffffffffffffffffffff1681526020019081526020016000206040518060800160405290816000820160009054906101000a900473ffffffffffffffffffffffffffffffffffffffff1673ffffffffffffffffffffffffffffffffffffffff1673ffffffffffffffffffffffffffffffffffffffff1681526020016001820154815260200160028201805461059290612a35565b80601f01602080910402602001604051908101604052809291908181526020018280546105be90612a35565b801561060b5780601f106105e05761010080835404028352916020019161060b565b820191906000526020600020905b8154815290600101906020018083116105ee57829003601f168201915b505050505081526020016003820160009054906101000a900460ff16151515158152505090508060600151610675576040517f08c379a000000000000000000000000000000000000000000000000000000000815260040161066c90612ab2565b60405180910390fd5b60008160200151116106bc576040517f08c379a00000000000000000000000000000000000000000000000000000000081526004016106b390612b1e565b60405180910390fd5b8060200151600260008573ffffffffffffffffffffffffffffffffffffffff1673ffffffffffffffffffffffffffffffffffffffff168152602001908152602001600020541015610742576040517f08c379a000000000000000000000000000000000000000000000000000000000815260040161073990612b8a565b60405180910390fd5b8060200151600260008573ffffffffffffffffffffffffffffffffffffffff1673ffffffffffffffffffffffffffffffffffffffff16815260200190815260200160002060008282546107959190612bd9565b925050819055507f000000000000000000000000000000000000000000000000000000000000000073ffffffffffffffffffffffffffffffffffffffff1663a9059cbb826000015183602001516040518363ffffffff1660e01b81526004016107ff929190612c0d565b6020604051808303816000875af115801561081e573d6000803e3d6000fd5b505050506040513d601f19601f820116820180604052508101906108429190612c62565b508060200151600260008573ffffffffffffffffffffffffffffffffffffffff1673ffffffffffffffffffffffffffffffffffffffff168152602001908152602001600020541080156108d857508060200151600360008573ffffffffffffffffffffffffffffffffffffffff1673ffffffffffffffffffffffffffffffffffffffff1681526020019081526020016000205410155b15610a57578060200151600360008573ffffffffffffffffffffffffffffffffffffffff1673ffffffffffffffffffffffffffffffffffffffff16815260200190815260200160002060008282546109309190612bd9565b925050819055508060200151600260008573ffffffffffffffffffffffffffffffffffffffff1673ffffffffffffffffffffffffffffffffffffffff168152602001908152602001600020600082825461098a9190612c8f565b925050819055507f000000000000000000000000000000000000000000000000000000000000000073ffffffffffffffffffffffffffffffffffffffff166369328dec7f00000000000000000000000000000000000000000000000000000000000000008360200151306040518463ffffffff1660e01b8152600401610a1293929190612cc3565b6020604051808303816000875af1158015610a31573d6000803e3d6000fd5b505050506040513d601f19601f82011682018060405250810190610a559190612d0f565b505b806000015173ffffffffffffffffffffffffffffffffffffffff168373ffffffffffffffffffffffffffffffffffffffff167fd52bd61f7c422d441e024604f4517878fd3305d6acf0fe37baef23ed21af6bc98360200151604051610abc9190612913565b60405180910390a350610acd61240d565b5050565b60066020528060005260406000206000915090508060000160009054906101000a900473ffffffffffffffffffffffffffffffffffffffff1690806001015490806002018054610b2090612a35565b80601f0160208091040260200160405190810160405280929190818152602001828054610b4c90612a35565b8015610b995780601f10610b6e57610100808354040283529160200191610b99565b820191906000526020600020905b815481529060010190602001808311610b7c57829003601f168201915b5050505050908060030160009054906101000a900460ff16905084565b7f000000000000000000000000000000000000000000000000000000000000000081565b600080600080600260008673ffffffffffffffffffffffffffffffffffffffff1673ffffffffffffffffffffffffffffffffffffffff16815260200190815260200160002054600360008773ffffffffffffffffffffffffffffffffffffffff1673ffffffffffffffffffffffffffffffffffffffff16815260200190815260200160002054600460008873ffffffffffffffffffffffffffffffffffffffff1673ffffffffffffffffffffffffffffffffffffffff16815260200190815260200160002054600560008973ffffffffffffffffffffffffffffffffffffffff1673ffffffffffffffffffffffffffffffffffffffff16815260200190815260200160002060009054906101000a900460ff1693509350935093509193509193565b60008054906101000a900473ffffffffffffffffffffffffffffffffffffffff1673ffffffffffffffffffffffffffffffffffffffff163373ffffffffffffffffffffffffffffffffffffffff1614610d8a576040517f08c379a0000000000000000000000000000000000000000000000000000000008152600401610d819061297a565b60405180910390fd5b81600560008273ffffffffffffffffffffffffffffffffffffffff1673ffffffffffffffffffffffffffffffffffffffff16815260200190815260200160002060009054906101000a900460ff16610e17576040517f08c379a0000000000000000000000000000000000000000000000000000000008152600401610e0e906129e6565b60405180910390fd5b610e1f6123ea565b81600360008573ffffffffffffffffffffffffffffffffffffffff1673ffffffffffffffffffffffffffffffffffffffff168152602001908152602001600020541015610ea1576040517f08c379a0000000000000000000000000000000000000000000000000000000008152600401610e9890612d88565b60405180910390fd5b81600360008573ffffffffffffffffffffffffffffffffffffffff1673ffffffffffffffffffffffffffffffffffffffff1681526020019081526020016000206000828254610ef09190612bd9565b9250508190555081600260008573ffffffffffffffffffffffffffffffffffffffff1673ffffffffffffffffffffffffffffffffffffffff1681526020019081526020016000206000828254610f469190612c8f565b925050819055507f000000000000000000000000000000000000000000000000000000000000000073ffffffffffffffffffffffffffffffffffffffff166369328dec7f000000000000000000000000000000000000000000000000000000000000000084306040518463ffffffff1660e01b8152600401610fca93929190612cc3565b6020604051808303816000875af1158015610fe9573d6000803e3d6000fd5b505050506040513d601f19601f8201168201806040525081019061100d9190612d0f565b508273ffffffffffffffffffffffffffffffffffffffff167fdf67f60de178af7df2d3670e7e7f4d97b8933cc7636022bdc016c2ecf4e0e97d836040516110549190612913565b60405180910390a261106461240d565b505050565b600560003373ffffffffffffffffffffffffffffffffffffffff1673ffffffffffffffffffffffffffffffffffffffff16815260200190815260200160002060009054906101000a900460ff166110f5576040517f08c379a00000000000000000000000000000000000000000000000000000000081526004016110ec90612df4565b60405180910390fd5b600073ffffffffffffffffffffffffffffffffffffffff168473ffffffffffffffffffffffffffffffffffffffff1603611164576040517f08c379a000000000000000000000000000000000000000000000000000000000815260040161115b90612e60565b60405180910390fd5b600083116111a7576040517f08c379a000000000000000000000000000000000000000000000000000000000815260040161119e90612ecc565b60405180910390fd5b60405180608001604052808573ffffffffffffffffffffffffffffffffffffffff16815260200184815260200183838080601f016020809104026020016040519081016040528093929190818152602001838380828437600081840152601f19601f82011690508083019250505050505050815260200160011515815250600660003373ffffffffffffffffffffffffffffffffffffffff1673ffffffffffffffffffffffffffffffffffffffff16815260200190815260200160002060008201518160000160006101000a81548173ffffffffffffffffffffffffffffffffffffffff021916908373ffffffffffffffffffffffffffffffffffffffff1602179055506020820151816001015560408201518160020190816112ca91906130bd565b5060608201518160030160006101000a81548160ff02191690831515021790555090505082600260003373ffffffffffffffffffffffffffffffffffffffff1673ffffffffffffffffffffffffffffffffffffffff168152602001908152602001600020541015611370576040517f08c379a0000000000000000000000000000000000000000000000000000000008152600401611367906131db565b60405180910390fd5b82600460003373ffffffffffffffffffffffffffffffffffffffff1673ffffffffffffffffffffffffffffffffffffffff168152602001908152602001600020819055503373ffffffffffffffffffffffffffffffffffffffff167f3d1d61daa41cc5e16943134e4814c18d54f8cfa2505fe9b163831305e11dcc3f858585856040516114009493929190613237565b60405180910390a250505050565b60008054906101000a900473ffffffffffffffffffffffffffffffffffffffff1673ffffffffffffffffffffffffffffffffffffffff163373ffffffffffffffffffffffffffffffffffffffff161461149c576040517f08c379a00000000000000000000000000000000000000000000000000000000081526004016114939061297a565b60405180910390fd5b81600560008273ffffffffffffffffffffffffffffffffffffffff1673ffffffffffffffffffffffffffffffffffffffff16815260200190815260200160002060009054906101000a900460ff16611529576040517f08c379a0000000000000000000000000000000000000000000000000000000008152600401611520906129e6565b60405180910390fd5b6115316123ea565b81600260008573ffffffffffffffffffffffffffffffffffffffff1673ffffffffffffffffffffffffffffffffffffffff1681526020019081526020016000205410156115b3576040517f08c379a00000000000000000000000000000000000000000000000000000000081526004016115aa906132c3565b60405180910390fd5b600082116115f6576040517f08c379a00000000000000000000000000000000000000000000000000000000081526004016115ed90612ecc565b60405180910390fd5b81600260008573ffffffffffffffffffffffffffffffffffffffff1673ffffffffffffffffffffffffffffffffffffffff16815260200190815260200160002060008282546116459190612bd9565b9250508190555081600360008573ffffffffffffffffffffffffffffffffffffffff1673ffffffffffffffffffffffffffffffffffffffff168152602001908152602001600020600082825461169b9190612c8f565b925050819055507f000000000000000000000000000000000000000000000000000000000000000073ffffffffffffffffffffffffffffffffffffffff1663095ea7b37f0000000000000000000000000000000000000000000000000000000000000000846040518363ffffffff1660e01b815260040161171d929190612c0d565b6020604051808303816000875af115801561173c573d6000803e3d6000fd5b505050506040513d601f19601f820116820180604052508101906117609190612c62565b507f000000000000000000000000000000000000000000000000000000000000000073ffffffffffffffffffffffffffffffffffffffff1663617ba0377f0000000000000000000000000000000000000000000000000000000000000000843060006040518563ffffffff1660e01b81526004016117e1949392919061332c565b600060405180830381600087803b1580156117fb57600080fd5b505af115801561180f573d6000803e3d6000fd5b505050508273ffffffffffffffffffffffffffffffffffffffff167fbab71f3a8d032933072a16c3bd550007c506eca1914bae1d351bfec556f07cbd836040516118599190612913565b60405180910390a261186961240d565b505050565b6000806060600080600660008773ffffffffffffffffffffffffffffffffffffffff1673ffffffffffffffffffffffffffffffffffffffff1681526020019081526020016000206040518060800160405290816000820160009054906101000a900473ffffffffffffffffffffffffffffffffffffffff1673ffffffffffffffffffffffffffffffffffffffff1673ffffffffffffffffffffffffffffffffffffffff1681526020016001820154815260200160028201805461193090612a35565b80601f016020809104026020016040519081016040528092919081815260200182805461195c90612a35565b80156119a95780601f1061197e576101008083540402835291602001916119a9565b820191906000526020600020905b81548152906001019060200180831161198c57829003601f168201915b505050505081526020016003820160009054906101000a900460ff161515151581525050905080600001518160200151826040015183606001519450945094509450509193509193565b60008054906101000a900473ffffffffffffffffffffffffffffffffffffffff1681565b600160009054906101000a900473ffffffffffffffffffffffffffffffffffffffff1681565b60056020528060005260406000206000915054906101000a900460ff1681565b7f000000000000000000000000000000000000000000000000000000000000000081565b611a896123ea565b60008111611acc576040517f08c379a0000000000000000000000000000000000000000000000000000000008152600401611ac390612ecc565b60405180910390fd5b7f000000000000000000000000000000000000000000000000000000000000000073ffffffffffffffffffffffffffffffffffffffff166323b872dd3330846040518463ffffffff1660e01b8152600401611b2993929190613371565b6020604051808303816000875af1158015611b48573d6000803e3d6000fd5b505050506040513d601f19601f82011682018060405250810190611b6c9190612c62565b5080600260003373ffffffffffffffffffffffffffffffffffffffff1673ffffffffffffffffffffffffffffffffffffffff1681526020019081526020016000206000828254611bbc9190612c8f565b925050819055506001600560003373ffffffffffffffffffffffffffffffffffffffff1673ffffffffffffffffffffffffffffffffffffffff16815260200190815260200160002060006101000a81548160ff0219169083151502179055503373ffffffffffffffffffffffffffffffffffffffff167f2da466a7b24304f47e87fa2e1e5a81b9831ce54fec19055ce277ca2f39ba42c482604051611c619190612913565b60405180910390a23373ffffffffffffffffffffffffffffffffffffffff167ff5e2fa5714d0b6b403df191ede24673b96333ece239c1c0dc32962501c5da82e60405160405180910390a2611cb461240d565b50565b600160009054906101000a900473ffffffffffffffffffffffffffffffffffffffff1673ffffffffffffffffffffffffffffffffffffffff163373ffffffffffffffffffffffffffffffffffffffff1614611d47576040517f08c379a0000000000000000000000000000000000000000000000000000000008152600401611d3e906133f4565b60405180910390fd5b806000806101000a81548173ffffffffffffffffffffffffffffffffffffffff021916908373ffffffffffffffffffffffffffffffffffffffff16021790555050565b60036020528060005260406000206000915090505481565b611daa6123ea565b6000600260003373ffffffffffffffffffffffffffffffffffffffff1673ffffffffffffffffffffffffffffffffffffffff1681526020019081526020016000205490506000600360003373ffffffffffffffffffffffffffffffffffffffff1673ffffffffffffffffffffffffffffffffffffffff1681526020019081526020016000205490506000821180611e415750600081115b611e80576040517f08c379a0000000000000000000000000000000000000000000000000000000008152600401611e7790613460565b60405180910390fd5b600081111561204f577f000000000000000000000000000000000000000000000000000000000000000073ffffffffffffffffffffffffffffffffffffffff1663095ea7b37f0000000000000000000000000000000000000000000000000000000000000000836040518363ffffffff1660e01b8152600401611f04929190612c0d565b6020604051808303816000875af1158015611f23573d6000803e3d6000fd5b505050506040513d601f19601f82011682018060405250810190611f479190612c62565b507f000000000000000000000000000000000000000000000000000000000000000073ffffffffffffffffffffffffffffffffffffffff166369328dec7f000000000000000000000000000000000000000000000000000000000000000083306040518463ffffffff1660e01b8152600401611fc593929190612cc3565b6020604051808303816000875af1158015611fe4573d6000803e3d6000fd5b505050506040513d601f19601f820116820180604052508101906120089190612d0f565b506000600360003373ffffffffffffffffffffffffffffffffffffffff1673ffffffffffffffffffffffffffffffffffffffff168152602001908152602001600020819055505b60007f000000000000000000000000000000000000000000000000000000000000000073ffffffffffffffffffffffffffffffffffffffff166370a08231306040518263ffffffff1660e01b81526004016120aa9190612874565b602060405180830381865afa1580156120c7573d6000803e3d6000fd5b505050506040513d601f19601f820116820180604052508101906120eb9190612d0f565b9050600082846120fb9190612c8f565b90506000600260003373ffffffffffffffffffffffffffffffffffffffff1673ffffffffffffffffffffffffffffffffffffffff168152602001908152602001600020819055506000600460003373ffffffffffffffffffffffffffffffffffffffff1673ffffffffffffffffffffffffffffffffffffffff168152602001908152602001600020819055506000600560003373ffffffffffffffffffffffffffffffffffffffff1673ffffffffffffffffffffffffffffffffffffffff16815260200190815260200160002060006101000a81548160ff0219169083151502179055507f000000000000000000000000000000000000000000000000000000000000000073ffffffffffffffffffffffffffffffffffffffff1663a9059cbb33836040518363ffffffff1660e01b815260040161223a929190612c0d565b6020604051808303816000875af1158015612259573d6000803e3d6000fd5b505050506040513d601f19601f8201168201806040525081019061227d9190612c62565b503373ffffffffffffffffffffffffffffffffffffffff167f7084f5476618d8e60b11ef0d7d3f06914655adb8793e28ff7f018d4c76d505d5826040516122c49190612913565b60405180910390a23373ffffffffffffffffffffffffffffffffffffffff167f9c4b1ed0ed189efc6a57e7d998a10db67480b9856d32d39be0621e2da388f74360405160405180910390a25050505061231b61240d565b565b60046020528060005260406000206000915090505481565b6000600560003373ffffffffffffffffffffffffffffffffffffffff1673ffffffffffffffffffffffffffffffffffffffff16815260200190815260200160002060006101000a81548160ff0219169083151502179055503373ffffffffffffffffffffffffffffffffffffffff167f9c4b1ed0ed189efc6a57e7d998a10db67480b9856d32d39be0621e2da388f74360405160405180910390a2565b60026020528060005260406000206000915090505481565b6123f2612428565b60026124046123ff612469565b612494565b60000181905550565b600161241f61241a612469565b612494565b60000181905550565b61243061249e565b15612467576040517f3ee5aeb500000000000000000000000000000000000000000000000000000000815260040160405180910390fd5b565b60007f9b779b17422d0df92223018b32b4d1fa46e071723d6817e2486d003becc55f0060001b905090565b6000819050919050565b600060026124b26124ad612469565b612494565b6000015414905090565b600080fd5b600080fd5b600073ffffffffffffffffffffffffffffffffffffffff82169050919050565b60006124f1826124c6565b9050919050565b612501816124e6565b811461250c57600080fd5b50565b60008135905061251e816124f8565b92915050565b60006020828403121561253a576125396124bc565b5b60006125488482850161250f565b91505092915050565b61255a816124e6565b82525050565b6000819050919050565b61257381612560565b82525050565b600081519050919050565b600082825260208201905092915050565b60005b838110156125b3578082015181840152602081019050612598565b60008484015250505050565b6000601f19601f8301169050919050565b60006125db82612579565b6125e58185612584565b93506125f5818560208601612595565b6125fe816125bf565b840191505092915050565b60008115159050919050565b61261e81612609565b82525050565b60006080820190506126396000830187612551565b612646602083018661256a565b818103604083015261265881856125d0565b90506126676060830184612615565b95945050505050565b6000819050919050565b600061269561269061268b846124c6565b612670565b6124c6565b9050919050565b60006126a78261267a565b9050919050565b60006126b98261269c565b9050919050565b6126c9816126ae565b82525050565b60006020820190506126e460008301846126c0565b92915050565b60006080820190506126ff600083018761256a565b61270c602083018661256a565b612719604083018561256a565b6127266060830184612615565b95945050505050565b61273881612560565b811461274357600080fd5b50565b6000813590506127558161272f565b92915050565b60008060408385031215612772576127716124bc565b5b60006127808582860161250f565b925050602061279185828601612746565b9150509250929050565b600080fd5b600080fd5b600080fd5b60008083601f8401126127c0576127bf61279b565b5b8235905067ffffffffffffffff8111156127dd576127dc6127a0565b5b6020830191508360018202830111156127f9576127f86127a5565b5b9250929050565b6000806000806060858703121561281a576128196124bc565b5b60006128288782880161250f565b945050602061283987828801612746565b935050604085013567ffffffffffffffff81111561285a576128596124c1565b5b612866878288016127aa565b925092505092959194509250565b60006020820190506128896000830184612551565b92915050565b60006020820190506128a46000830184612615565b92915050565b60006128b58261269c565b9050919050565b6128c5816128aa565b82525050565b60006020820190506128e060008301846128bc565b92915050565b6000602082840312156128fc576128fb6124bc565b5b600061290a84828501612746565b91505092915050565b6000602082019050612928600083018461256a565b92915050565b7f4f6e6c79206275746c6572206167656e742063616e2063616c6c207468697300600082015250565b6000612964601f83612584565b915061296f8261292e565b602082019050919050565b6000602082019050818103600083015261299381612957565b9050919050565b7f4275746c6572206e6f742061637469766520666f722074686973207573657200600082015250565b60006129d0601f83612584565b91506129db8261299a565b602082019050919050565b600060208201905081810360008301526129ff816129c3565b9050919050565b7f4e487b7100000000000000000000000000000000000000000000000000000000600052602260045260246000fd5b60006002820490506001821680612a4d57607f821691505b602082108103612a6057612a5f612a06565b5b50919050565b7f4e6f20616374697665207061796d656e742072756c6500000000000000000000600082015250565b6000612a9c601683612584565b9150612aa782612a66565b602082019050919050565b60006020820190508181036000830152612acb81612a8f565b9050919050565b7f496e76616c6964207061796d656e7420616d6f756e7400000000000000000000600082015250565b6000612b08601683612584565b9150612b1382612ad2565b602082019050919050565b60006020820190508181036000830152612b3781612afb565b9050919050565b7f496e73756666696369656e742062616c616e636520666f72207061796d656e74600082015250565b6000612b74602083612584565b9150612b7f82612b3e565b602082019050919050565b60006020820190508181036000830152612ba381612b67565b9050919050565b7f4e487b7100000000000000000000000000000000000000000000000000000000600052601160045260246000fd5b6000612be482612560565b9150612bef83612560565b9250828203905081811115612c0757612c06612baa565b5b92915050565b6000604082019050612c226000830185612551565b612c2f602083018461256a565b9392505050565b612c3f81612609565b8114612c4a57600080fd5b50565b600081519050612c5c81612c36565b92915050565b600060208284031215612c7857612c776124bc565b5b6000612c8684828501612c4d565b91505092915050565b6000612c9a82612560565b9150612ca583612560565b9250828201905080821115612cbd57612cbc612baa565b5b92915050565b6000606082019050612cd86000830186612551565b612ce5602083018561256a565b612cf26040830184612551565b949350505050565b600081519050612d098161272f565b92915050565b600060208284031215612d2557612d246124bc565b5b6000612d3384828501612cfa565b91505092915050565b7f496e73756666696369656e7420416176652062616c616e636500000000000000600082015250565b6000612d72601983612584565b9150612d7d82612d3c565b602082019050919050565b60006020820190508181036000830152612da181612d65565b9050919050565b7f4465706f73697420666972737420746f206163746976617465206275746c6572600082015250565b6000612dde602083612584565b9150612de982612da8565b602082019050919050565b60006020820190508181036000830152612e0d81612dd1565b9050919050565b7f496e76616c696420726563697069656e74000000000000000000000000000000600082015250565b6000612e4a601183612584565b9150612e5582612e14565b602082019050919050565b60006020820190508181036000830152612e7981612e3d565b9050919050565b7f416d6f756e74206d7573742062652067726561746572207468616e207a65726f600082015250565b6000612eb6602083612584565b9150612ec182612e80565b602082019050919050565b60006020820190508181036000830152612ee581612ea9565b9050919050565b7f4e487b7100000000000000000000000000000000000000000000000000000000600052604160045260246000fd5b60008190508160005260206000209050919050565b60006020601f8301049050919050565b600082821b905092915050565b600060088302612f7d7fffffffffffffffffffffffffffffffffffffffffffffffffffffffffffffffff82612f40565b612f878683612f40565b95508019841693508086168417925050509392505050565b6000612fba612fb5612fb084612560565b612670565b612560565b9050919050565b6000819050919050565b612fd483612f9f565b612fe8612fe082612fc1565b848454612f4d565b825550505050565b600090565b612ffd612ff0565b613008818484612fcb565b505050565b5b8181101561302c57613021600082612ff5565b60018101905061300e565b5050565b601f8211156130715761304281612f1b565b61304b84612f30565b8101602085101561305a578190505b61306e61306685612f30565b83018261300d565b50505b505050565b600082821c905092915050565b600061309460001984600802613076565b1980831691505092915050565b60006130ad8383613083565b9150826002028217905092915050565b6130c682612579565b67ffffffffffffffff8111156130df576130de612eec565b5b6130e98254612a35565b6130f4828285613030565b600060209050601f8311600181146131275760008415613115578287015190505b61311f85826130a1565b865550613187565b601f19841661313586612f1b565b60005b8281101561315d57848901518255600182019150602085019450602081019050613138565b8683101561317a5784890151613176601f891682613083565b8355505b6001600288020188555050505b505050505050565b7f496e73756666696369656e742062616c616e636520666f722072657365727665600082015250565b60006131c5602083612584565b91506131d08261318f565b602082019050919050565b600060208201905081810360008301526131f4816131b8565b9050919050565b82818337600083830152505050565b60006132168385612584565b93506132238385846131fb565b61322c836125bf565b840190509392505050565b600060608201905061324c6000830187612551565b613259602083018661256a565b818103604083015261326c81848661320a565b905095945050505050565b7f496e73756666696369656e74207661756c742062616c616e6365000000000000600082015250565b60006132ad601a83612584565b91506132b882613277565b602082019050919050565b600060208201905081810360008301526132dc816132a0565b9050919050565b6000819050919050565b600061ffff82169050919050565b600061331661331161330c846132e3565b612670565b6132ed565b9050919050565b613326816132fb565b82525050565b60006080820190506133416000830187612551565b61334e602083018661256a565b61335b6040830185612551565b613368606083018461331d565b95945050505050565b60006060820190506133866000830186612551565b6133936020830185612551565b6133a0604083018461256a565b949350505050565b7f4f6e6c79206f776e657200000000000000000000000000000000000000000000600082015250565b60006133de600a83612584565b91506133e9826133a8565b602082019050919050565b6000602082019050818103600083015261340d816133d1565b9050919050565b7f4e6f7468696e6720746f20776974686472617700000000000000000000000000600082015250565b600061344a601383612584565b915061345582613414565b602082019050919050565b600060208201905081810360008301526134798161343d565b905091905056fea2646970667358221220de2ea1c612b327c99d6ad4ff58080223e273c1d82591a03b4e757f35e44233f164736f6c63430008140033",
  "linkReferences": {},
  "deployedLinkReferences": {}
}